S00E00004B65797061642E73726563B8
S11300000C942A000C943F000C943F000C943F0085
S11300100C943F000C943F000C943F000C943F0060
S11300200C943F000C943F000C943F000C943F0050
S11300300C943F000C943F000C943F000C943F0040
S11300400C943F000C943F000C943F000C943F0030
S11300500C943F0011241FBECFE5D8E0DEBFCDBF16
S113006010E0A0E6B0E0E2E0F8E002C005900D92F6
S1130070A237B107D9F70E94E8030C94FF030C944C
S11300800000813019F130F08230E1F1833009F45D
S113009055C00895442319F0413069F008952BB3F5
S11300A081E090E002C0880F991F6A95E2F780957D
S11300B082238BBB08952BB381E090E002C0880FAC
S11300C0991F6A95E2F7822B8BBB0895442319F09C
S11300D0413069F0089528B381E090E002C0880FB0
S11300E0991F6A95E2F78095822388BB089528B307
S11300F081E090E002C0880F991F6A95E2F7822B95
S113010088BB0895442319F0413069F0089525B35C
S113011081E090E002C0880F991F6A95E2F780950C
S1130120822385BB089525B381E090E002C0880F47
S1130130991F6A95E2F7822B85BB0895442319F031
S1130140413069F0089522B381E090E002C0880F45
S1130150991F6A95E2F78095822382BB089522B3A2
S113016081E090E002C0880F991F6A95E2F7822B24
S113017082BB0895813019F130F08230E1F183308F
S113018009F455C00895442319F0413069F00895E5
S11301902AB381E090E002C0880F991F6A95E2F7C4
S11301A0809582238ABB08952AB381E090E002C03F
S11301B0880F991F6A95E2F7822B8ABB089544231E
S11301C019F0413069F0089527B381E090E002C04E
S11301D0880F991F6A95E2F78095822387BB08955B
S11301E027B381E090E002C0880F991F6A95E2F777
S11301F0822B87BB0895442319F0413069F0089598
S113020024B381E090E002C0880F991F6A95E2F759
S11302108095822384BB089524B381E090E002C0DA
S1130220880F991F6A95E2F7822B84BB08954423B3
S113023019F0413069F0089521B381E090E002C0E3
S1130240880F991F6A95E2F78095822381BB0895F0
S113025021B381E090E002C0880F991F6A95E2F70C
S1130260822B81BB0895813079F028F08230A9F087
S11302708330E1F024C089B390E002C0959587955E
S11302806A95E2F78170089586B390E002C095956F
S113029087956A95E2F78170089583B390E002C070
S11302A0959587956A95E2F78170089580B390E0FB
S11302B002C0959587956A95E2F78170089585E067
S11302C00895813041F028F0823039F0833039F0DC
S11302D008956BBB089568BB089565BB089562BB20
S11302E00895813041F028F0823039F0833039F0BC
S11302F008956ABB089567BB089564BB089561BB04
S11303000895813041F028F0823039F0833039F09B
S113031008C089B3089586B3089583B3089580B35C
S1130320089580E008956FEF82E00E94710160E01B
S113033083E00E9471010895CF938FE39CE90197B4
S1130340F1F700C000006FED82E00E94610167E0F8
S113035083E00E9433018823A1F066E083E00E94D9
S11303603301882381F065E083E00E943301882310
S113037061F063E083E00E943301882341F0C0E030
S113038007C0C1E305C0C2E303C0C3E301C0CBE2BD
S11303906FEE82E00E94610167E083E00E94330116
S11303A0882399F066E083E00E943301882379F082
S11303B065E083E00E943301882359F063E083E021
S11303C00E943301882339F007C0C4E305C0C5E3A4
S11303D003C0C6E301C0CDE267EF82E00E94610181
S11303E067E083E00E943301882399F066E083E0AC
S11303F00E943301882379F065E083E00E94330191
S1130400882359F063E083E00E943301882339F0A4
S113041007C0C7E305C0C8E303C0C9E301C0CAE21B
S11304206BEF82E00E94610167E083E00E94330188
S1130430882399F066E083E00E943301882379F0F1
S113044065E083E00E943301882359F063E083E090
S11304500E943301882339F007C0CEE205C0C0E30F
S113046003C0CDE301C0CFE260E082E00E946101FD
S113047083E00E948101887E883EB1F78C2FCF9162
S11304800895CF93C82F40E063E080E00E944100CC
S11304908FEC97E00197F1F700C0000041E062E0C3
S11304A080E00E9441008FEC97E00197F1F700C0D3
S11304B000004C2F407150E0559547955595479550
S11304C0559547955595479560E081E00E94410018
S11304D04C2F407250E05595479555954795559545
S11304E04795559547955595479561E081E00E945C
S11304F041004C2F407450E0042E452F000C441F43
S1130500550B000C441F551F62E081E00E9441001E
S11305104C2F441F4427441F64E081E00E944100A3
S11305208FEC97E00197F1F700C0000040E062E033
S113053080E00E9441008FEC97E00197F1F700C042
S1130540000041E062E080E00E9441008FEC97E00F
S11305500197F1F700C000004C2F417060E081E08A
S11305600E9441004C2F427050E05595479561E040
S113057081E00E9441004C2F447050E0559547950E
S11305805595479562E081E00E944100C8704C2F68
S113059050E055954795559547955595479564E091
S11305A081E00E9441008FEC97E00197F1F700C0D1
S11305B0000040E062E080E00E9441008FEC97E0A0
S11305C00197F1F700C00000CF91089541E063E086
S11305D080E00E94BA0041E062E080E00E94BA003C
S11305E08FE39CE90197F1F700C0000041E060E06F
S11305F081E00E94BA0041E061E081E00E94BA001B
S113060041E062E081E00E94BA0041E064E081E000
S11306100E94BA0083E30E94410282E30E944102E5
S113062088E20E9441028CE00E94410281E00E9423
S113063041020895CF93C82F41E063E080E00E9417
S113064041008FEC97E00197F1F700C0000041E012
S113065062E080E00E9441008FEC97E00197F1F79F
S113066000C000004C2F407150E0559547955595BA
S11306704795559547955595479560E081E00E94CB
S113068041004C2F407250E055954795559547953C
S113069055954795559547955595479561E081E062
S11306A00E9441004C2F407450E0042E452F000C52
S11306B0441F550B000C441F551F62E081E00E944B
S11306C041004C2F441F4427441F64E081E00E94F2
S11306D041008FEC97E00197F1F700C0000040E083
S11306E062E080E00E9441008FEC97E00197F1F70F
S11306F000C0000041E062E080E00E9441008FEC15
S113070097E00197F1F700C000004C2F417060E0C2
S113071081E00E9441004C2F427050E0559547956E
S113072061E081E00E9441004C2F447050E05595F7
S113073047955595479562E081E00E944100C87055
S11307404C2F50E0559547955595479555954795A8
S113075064E081E00E9441008FEC97E00197F1F79B
S113076000C0000040E062E080E00E9441008FECA5
S113077097E00197F1F700C00000CF910895CF935F
S1130780DF93EC0103C00E941A0321968881811132
S1130790FACFDF91CF910895813059F028F082305B
S11307A069F0833081F0089580E8860F0E94410249
S11307B0089580EC860F0E944102089584E9860F13
S11307C00E944102089584ED860F0E94410208951B
S11307D00E9493010E94E60261E080E00E94CC0343
S11307E080E690E00E94BF0366E082E00E94CC03B2
S11307F00E949C018823E1F30E941A03F9CFF89424
S1050800FFCF24
S1130802504C4541534520454E544552204E554D7A
S105081253008D
S9030000FC
